:020000040000FA
:100000000C9462000C948A000C948A000C948A0070
:100010000C948A000C948A000C948A000C948A0038
:100020000C948A000C948A000C948A000C948A0028
:100030000C948A000C948A000C948A000C948A0018
:100040000C94F2040C948A000C9462050C943C0508
:100050000C948A000C948A000C948A000C948A00F8
:100060000C948A000C948A000000000024002700F1
:100070002A0000000000250028002B0000000000DE
:1000800023002600290004040404040404040202DA
:100090000202020203030303030301020408102007
:1000A0004080010204081020010204081020000012
:1000B0000008000201000003040700000000000027
:1000C0000000D90511241FBECFEFD8E0DEBFCDBFA1
:1000D00011E0A0E0B1E0ECE1F5E102C005900D9285
:1000E000A038B107D9F722E0A0E8B1E001C01D9225
:1000F000A135B207E1F710E0C2E6D0E004C02197D5
:10010000FE010E94860AC136D107C9F70E94230664
:100110000C948C0A0C940000833081F028F4813018
:1001200099F08230A9F008958730A9F08830C9F09D
:100130008430B1F4809180008F7D03C08091800075
:100140008F7780938000089584B58F7784BD08955C
:1001500084B58F7DFBCF8091B0008F778093B00006
:1001600008958091B0008F7DF9CFCF93DF93282F32
:1001700030E0F901E255FF4F8491F901E656FF4F57
:10018000D491F901EA57FF4FC491CC23A1F081111A
:100190000E948C00EC2FF0E0EE0FFF1FE458FF4FA1
:1001A000A591B491EC91ED2381E090E009F480E019
:1001B000DF91CF91089580E090E0FACF1F93CF9325
:1001C000DF93282F30E0F901E255FF4F8491F901C8
:1001D000E656FF4FD491F901EA57FF4FC491CC2363
:1001E000A9F0162F81110E948C00EC2FF0E0EE0F89
:1001F000FF1FEE58FF4FA591B4918FB7F894EC9183
:10020000111108C0D095DE23DC938FBFDF91CF9111
:100210001F910895DE2BF8CFCF93DF9390E0FC0180
:10022000E656FF4F24918A579F4FFC018491882303
:10023000C9F090E0880F991FFC01E859FF4FA59184
:10024000B491FC01EE58FF4FC591D49161110DC0DE
:100250009FB7F8948C91209582238C9388812823D2
:1002600028839FBFDF91CF910895623051F49FB7EB
:10027000F8943C91822F809583238C93E8812E2BD8
:10028000EFCF8FB7F894EC912E2B2C938FBFEACF42
:100290003FB7F8948091980190919901A0919A01AB
:1002A000B0919B0126B5A89B05C02F3F19F0019680
:1002B000A11DB11D3FBFBA2FA92F982F8827BC01C0
:1002C000CD01620F711D811D911D42E0660F771FE8
:1002D000881F991F4A95D1F708958F929F92AF92E8
:1002E000BF92CF92DF92EF92FF924B015C010E948E
:1002F00048016B017C010E9448016C197D098E093F
:100300009F09683E734081059105A8F321E0821A98
:100310009108A108B10888EEC80E83E0D81EE11C40
:10032000F11C81149104A104B10429F7FF90EF900E
:10033000DF90CF90BF90AF909F908F900895AF9235
:10034000BF92CF92DF92EF92FF920F931F93CF93C2
:10035000DF936C017B018B01040F151FEB015E0124
:10036000AE18BF08C017D10759F06991D601ED91B9
:10037000FC910190F081E02DC6010995892B79F758
:10038000C501DF91CF911F910F91FF90EF90DF900A
:10039000CF90BF90AF900895FC01538D448D252FD1
:1003A00030E0842F90E0821B930B541710F0CF960F
:1003B000089501970895FC01918D828D981761F041
:1003C000A28DAE0FBF2FB11D5D968C91928D9F5F58
:1003D0009F73928F90E008958FEF9FEF0895FC0137
:1003E000918D828D981731F0828DE80FF11D858DEA
:1003F00090E008958FEF9FEF0895FC01918D228D7D
:10040000892F90E0805C9F4F821B91098F73992701
:1004100008958CE991E00E94FD0121E0892B09F407
:1004200020E0822F089580E090E0892B29F00E943F
:10043000090281110C9400000895FC01A48DA80FFD
:10044000B92FB11DA35ABF4F2C91848D90E0019616
:100450008F739927848FA689B7892C93A089B18936
:100460008C91837080648C93938D848D981306C0D7
:100470000288F389E02D80818F7D80830895EF923B
:10048000FF920F931F93CF93DF93EC0181E0888F4E
:100490009B8D8C8D98131AC0E889F989808185FF1E
:1004A00015C09FB7F894EE89FF896083E889F989C0
:1004B00080818370806480839FBF81E090E0DF91C2
:1004C000CF911F910F91FF90EF900895F62E0B8D15
:1004D00010E00F5F1F4F0F731127E02E8C8D8E11D0
:1004E0000CC00FB607FCFACFE889F989808185FF37
:1004F000F5CFCE010E941D02F1CFEB8DEC0FFD2F49
:10050000F11DE35AFF4FF0829FB7F8940B8FEA89F1
:10051000FB8980818062CFCFCF93DF93EC01888D00
:100520008823B9F0AA89BB89E889F9898C9185FD6E
:1005300003C0808186FD0DC00FB607FCF7CF8C91FC
:1005400085FFF2CF808185FFEDCFCE010E941D0295
:10055000E9CFDF91CF910895089590E080E008956C
:10056000CF93DF93EC0160E08E810E94DE0061E0BA
:100570008E810E94DE0060E08E810E94DE008BE8AA
:1005800091E00197F1F7DF91CF910895CF92DF923B
:10059000EF92FF920F931F93CF93DF936C017C0137
:1005A00087E0E80EF11CD0E0C0E0062F10E0B801B3
:1005B0000C2E02C0759567950A94E2F76170F701F9
:1005C00081917F010E94DE002196C430D10579F728
:1005D000C601DF91CF911F910F91FF90EF90DF90B7
:1005E000CF900C94B002CF92DF92EF92FF920F93D4
:1005F0001F93CF93DF93EC01F62E642F8C810E9422
:10060000DE008D818F3F19F060E00E94DE000F2D2B
:1006100010E08F8584FF25C06E0187E0C80ED11CD5
:10062000F12CE12CB8010E2C02C0759567950A9447
:10063000E2F76170F60181916F010E94DE00FFEF29
:10064000EF1AFF0A88E0E816F10461F7CE01DF91A6
:10065000CF911F910F91FF90EF90DF90CF900C946E
:10066000B002B80184E0759567958A95E1F7CE01EF
:100670000E94C6026F2DCE01DF91CF911F910F9185
:10068000FF90EF90DF90CF900C94C60240E0682F6F
:1006900089E392E00C94F30281E00E9446038BE32D
:1006A0009FE10197F1F70895CF93DF93823029F40A
:1006B0009091480298609093480280934C02109267
:1006C0004D0280E480934E0280E180934F0280E5EA
:1006D0008093500261E080913D020E940C01809164
:1006E0003E028F3F19F061E00E940C0161E08091B1
:1006F0003F020E940C01C9E3D2E09E01295332401F
:100700008091480284FD0BC084E090E02196281778
:10071000390744F461E08E810E940C01EECF88E03D
:1007200090E0F4CF8BE39DE00197F1F760E08091DA
:100730003D020E94DE0060E080913F020E94DE00E8
:1007400080913E028F3F19F060E00E94DE008091B0
:10075000480284FD34C063E089E392E00E94C6024F
:10076000CBE4D6E4CE010197F1F763E089E392E0B0
:100770000E94C6022197F1F763E089E392E00E94AC
:10078000C60283E592E00197F1F762E089E392E027
:100790000E94C6028091480280620E94460384E063
:1007A000809349028CE00E9446030E944C0382E041
:1007B00080934A0286E0DF91CF910C9446038062D9
:1007C0000E9446038BE496E40197F1F7809148027A
:1007D00080620E94460383E592E00197F1F78091E1
:1007E000480280620E944603D5CF90914C0269175F
:1007F00010F06FEF690FE62FF0E0E75CFD4F948992
:10080000890F80680C94460341E00E94F30281E066
:1008100090E00895FB0101900020E9F73197AF01C6
:10082000461B570BDC01ED91FC910280F381E02D1A
:1008300009948F929F92AF92BF92EF92FF920F9383
:100840001F93CF93DF93CDB7DEB7A1970FB6F89480
:10085000DEBF0FBECDBF7C01FA01CB0119A2223051
:1008600008F42AE08E010F5D1F4F822E912CB12CCF
:10087000A12CBF01A50194010E94450AF901CA01FA
:100880006A300CF5605DD8016E938D01232B242B0B
:10089000252B79F790E080E0109721F0BD01C7018A
:1008A0000E940A04A1960FB6F894DEBF0FBECDBF1A
:1008B000DF91CF911F910F91FF90EF90BF90AF907C
:1008C0009F908F900895695CDECFCF92DF92EF9278
:1008D000FF920F931F93CF93DF93EC016A017B018B
:1008E000E881F9810190F081E02D6DE209958C019C
:1008F00044275527BA014C195D096E097F092AE082
:10090000CE010E941904800F911FDF91CF911F919A
:100910000F91FF90EF90DF90CF900895AB01770F8C
:10092000660B770B77FD0C9465042AE00C94190490
:100930000C940A040F931F93CF93DF93D82FC62FE5
:1009400060E00E94DE0083E090E00197F1F761E053
:100950008D2F0E94DE0083E290E00197F1F760E0C6
:100960008D2F0E94DE00D0E0FE01E656FF4F64911D
:10097000FE01EA57FF4FE491F0E0EE0FFF1FE4584D
:10098000FF4F8591949100E315E720E030E0462F7A
:100990000E949405611571058105910501F16F5F54
:1009A0007F4F8F4F9F4F9F70611571058105910596
:1009B000B1F00E944C0926E933E44BE05DE30E946C
:1009C000B00920E030E040E05FE30E94B0090E94FF
:1009D0001409CB01DF91CF911F910F91089587EEFC
:1009E00093E0F8CF1F920F920FB60F9211242F931E
:1009F0003F938F939F93AF93BF9380919401909176
:100A00009501A0919601B09197013091930123E057
:100A1000230F2D3758F50196A11DB11D2093930189
:100A20008093940190939501A0939601B0939701C0
:100A30008091980190919901A0919A01B0919B01A8
:100A40000196A11DB11D8093980190939901A093E7
:100A50009A01B0939B01BF91AF919F918F913F916C
:100A60002F910F900FBE0F901F90189526E8230F1F
:100A70000296A11DB11DD2CF1F920F920FB60F92F9
:100A800011242F933F934F935F936F937F938F9393
:100A90009F93AF93BF93EF93FF938CE991E00E94F4
:100AA0001D02FF91EF91BF91AF919F918F917F9127
:100AB0006F915F914F913F912F910F900FBE0F90CB
:100AC0001F9018951F920F920FB60F9211242F931B
:100AD0008F939F93EF93FF93E091AC01F091AD0161
:100AE0008081E091B201F091B30182FD1BC0908141
:100AF0008091B5018F5F8F732091B601821741F00D
:100B0000E091B501F0E0E456FE4F958F8093B5017A
:100B1000FF91EF919F918F912F910F900FBE0F90AA
:100B20001F9018958081F4CFCF92DF92EF92FF92C1
:100B30000F931F93E82FF92F05C0015011092109C8
:100B4000310961F1908196239417B9F305C00150E2
:100B500011092109310911F1908196239413F7CFDE
:100B6000C12CD12CE12CF12C0AC08FEFC81AD80A65
:100B7000E80AF80A0C151D052E053F0579F080815D
:100B80008623841791F36C2D7D2D8E2D9F2D1F9123
:100B90000F91FF90EF90DF90CF90089560E070E0AC
:100BA00080E090E01F910F91FF90EF90DF90CF9049
:100BB0000895ECE9F1E01382128288EE93E0A0E060
:100BC000B0E084839583A683B78384E091E091832A
:100BD000808385EC90E09587848784EC90E097870C
:100BE000868780EC90E0918B808B81EC90E0938BFA
:100BF000828B82EC90E0958B848B86EC90E0978BD7
:100C0000868B118E128E138E148EE9E3F2E013821E
:100C1000128286E191E0918380838CE084838FEF60
:100C200085838BE086838AE0878389E0808788E0FC
:100C3000818787E082871386148615861686178635
:100C400081E00C945403789484B5826084BD84B5AB
:100C5000816084BD85B5826085BD85B5816085BDB7
:100C600080916E00816080936E001092810080916F
:100C700081008260809381008091810081608093F7
:100C80008100809180008160809380008091B1001C
:100C900084608093B1008091B00081608093B00047
:100CA00080917A00846080937A0080917A008260DB
:100CB00080937A0080917A00816080937A0080919D
:100CC0007A00806880937A001092C100E091AC01B4
:100CD000F091AD0182E08083E091A801F091A9013B
:100CE0001082E091AA01F091AB018FEC8083109209
:100CF000B401E091B001F091B10186E08083E09110
:100D0000AE01F091AF01808180618083E091AE01FE
:100D1000F091AF01808188608083E091AE01F09115
:100D2000AF01808180688083E091AE01F091AF01D6
:100D300080818F7D808382E00E94540360E080E0A8
:100D40000E94F5036EE171E089E392E00E9498044D
:100D500061E080E00E94F5036EE271E089E392E0D9
:100D60000E9498046CED75E080E090E00E946D01B7
:100D70000E944C0361E082E00E940C0160E083E08D
:100D80000E940C0161E084E00E940C0160E085E0BB
:100D90000E940C0161E08EE00E940C0161E08FE096
:100DA0000E940C0161E080E10E940C0161E081E1A0
:100DB0000E940C0162E08DE00E940C0162E086E07E
:100DC0000E940C0161E08EE00E94DE0060E08FE096
:100DD0000E94DE0061E080E10E94DE0060E081E1CF
:100DE0000E94DE0080914902982F946090934902FE
:100DF0008C600E94460384E6882E912CA12CB12C95
:100E0000C0E0D0E011E08FB7F894C0909401D0908A
:100E10009501E0909601F09097018FBF8DE00E94C0
:100E2000B50020918901892B09F076C1211131C0CB
:100E30008091850190918601A0918701B0918801F0
:100E4000A7019601281B390B4A0B5B0BDA01C9017C
:100E50004F97A105B105E8F080918F019091900125
:100E6000A0919101B09192010196A11DB11D8093B5
:100E70008F0190939001A0939101B09392011093F0
:100E80008901C0928501D0928601E0928701F0929B
:100E9000880186E00E94B50020918401892B09F029
:100EA00056C121113EC08091800190918101A09195
:100EB0008201B0918301A7019601281B390B4A0BCF
:100EC0005B0BDA01C9014F97A105B10550F1809183
:100ED0008F0190919001A0919101B091920118160B
:100EE00019061A061B069CF480918F0190919001BF
:100EF000A0919101B09192010197A109B10980934C
:100F00008F0190939001A0939101B093920110935F
:100F10008401C0928001D0928101E0928201F0921E
:100F2000830140918F0150919001609191017091E6
:100F3000920180918E0114161506160617060CF004
:100F400021C181110DC010938E0180914902982F0B
:100F50009460909349028C600E9446030E944C0367
:100F600080918E01882309F45AC163E082E00E94D7
:100F70009A0490938D0180938C0165E084E00E9437
:100F80009A0490938B0180938A0160E080E00E9434
:100F9000F5036FE371E089E392E00E949804809189
:100FA0008C0190918D010197449708F011C163E481
:100FB00071E089E392E00E94980461E08FE00E9472
:100FC000DE0060E08EE00E94DE0061E080E00E94D2
:100FD000F50367E571E089E392E00E94980480914F
:100FE0008A0190918B010197449708F0FDC063E45A
:100FF00071E089E392E00E94980461E081E10E943F
:10100000DE0060E080E10E94DE0060E08BE00E9494
:10101000F5036BE571E089E392E00E94980460E0DB
:101020008EE00E94F50380918F0190919001A09134
:101030009101B0919201181619061A061B060CF4BC
:10104000DFC080918F0190919001A0919101B091AA
:1010500092019C01AD0166277727CB01621B730BC0
:10106000840B950BA50194010E94670A7B016A30ED
:10107000710534F465E571E089E392E00E9498041B
:10108000B70189E392E00E948E0460E671E08CE98A
:1010900091E00E94980460918C0170918D018CE91F
:1010A00091E00E948E0465E671E08CE991E00E9477
:1010B000980460918A0170918B018CE991E00E9403
:1010C0008E0460E771E08CE991E00E949804409101
:1010D0008F0150919001609191017091920177FF81
:1010E00098C08CE991E00E9465046CE771E08CE99E
:1010F00091E00E940A0462E370E080E090E00E94C8
:101100006D01209709F47FCE0E940902882309F41B
:101110007ACE0E94000077CE222309F4BACE8091C5
:10112000850190918601A0918701B0918801A70166
:101130009601281B390B4A0B5B0BDA01C9014F974B
:10114000A105B10508F4A5CE109289019ACE2223FB
:1011500009F4E7CE8091800190918101A0918201F4
:10116000B0918301A7019601281B390B4A0B5B0B39
:10117000DA01C9014F97A105B10508F4D2CE10924A
:101180008401C7CE882309F4EBCE10928E0160E073
:101190008EE00E94DE0060E08FE00E94DE0060E0F2
:1011A00080E10E94DE0060E081E10E94DE0060E0FC
:1011B00082E00E94DE0060E084E00E94DE00809118
:1011C00049028B7F8093490288600E944603C8CE03
:1011D0006DE471E089E392E00E94980460E08FE0A2
:1011E0000E94DE0061E0EECE6DE471E089E392E002
:1011F0000E94980460E081E10E94DE0061E002CF7D
:1012000060918F0170919001809191019091920174
:1012100029CF2AE08CE991E00E94190466CF6AE0A8
:1012200070E080E090E06BCF0E941B096894B111E0
:101230000C94AA0908950E948F0988F09F5798F08E
:10124000B92F9927B751B0F0E1F0660F771F881FCB
:10125000991F1AF0BA95C9F714C0B13091F00E94E5
:10126000A909B1E008950C94A909672F782F882760
:10127000B85F39F0B93FCCF3869577956795B3950C
:10128000D9F73EF490958095709561957F4F8F4F7B
:101290009F4F0895E89409C097FB3EF49095809580
:1012A000709561957F4F8F4F9F4F9923A9F0F92F2C
:1012B00096E9BB279395F695879577956795B795AA
:1012C000F111F8CFFAF4BB0F11F460FF1BC06F5F90
:1012D0007F4F8F4F9F4F16C0882311F096E911C0A2
:1012E000772321F09EE8872F762F05C0662371F0C3
:1012F00096E8862F70E060E02AF09A95660F771FD7
:10130000881FDAF7880F9695879597F9089557FD06
:101310009058440F551F59F05F3F71F04795880F63
:1013200097FB991F61F09F3F79F0879508951216FA
:1013300013061406551FF2CF4695F1DF08C01616A6
:1013400017061806991FF1CF869571056105089457
:101350000895E894BB2766277727CB0197F908956E
:101360000E94C3090C94340A0E94260A38F00E9495
:101370002D0A20F0952311F00C941D0A0C94230AD9
:1013800011240C94AA090E94870970F3959FC1F358
:10139000950F50E0551F629FF001729FBB27F00D23
:1013A000B11D639FAA27F00DB11DAA1F649F662778
:1013B000B00DA11D661F829F2227B00DA11D621FC7
:1013C000739FB00DA11D621F839FA00D611D221F81
:1013D000749F3327A00D611D231F849F600D211D65
:1013E000822F762F6A2F11249F5750409AF0F1F0E8
:1013F00088234AF0EE0FFF1FBB1F661F771F881F51
:1014000091505040A9F79E3F510580F00C941D0A61
:101410000C94AA095F3FE4F3983ED4F38695779540
:101420006795B795F795E7959F5FC1F7FE2B880FF6
:10143000911D9695879597F9089597F99F6780E88C
:1014400070E060E008959FEF80EC089500240A9416
:101450001616170618060906089500240A9412168F
:101460001306140605060895092E0394000C11F4C2
:10147000882352F0BB0F40F4BF2B11F460FF04C06F
:101480006F5F7F4F8F4F9F4F0895A1E21A2EAA1BC7
:10149000BB1BFD010DC0AA1FBB1FEE1FFF1FA21724
:1014A000B307E407F50720F0A21BB30BE40BF50B21
:1014B000661F771F881F991F1A9469F760957095AA
:1014C000809590959B01AC01BD01CF010895052E3B
:1014D00097FB1EF400940E947E0A57FD07D00E94DD
:1014E000450A07FC03D04EF40C947E0A50954095B3
:1014F000309521953F4F4F4F5F4F089590958095C0
:10150000709561957F4F8F4F9F4F0895EE0FFF1F8E
:101510000590F491E02D0994F894FFCF00000000AD
:101520003F029F01CC018C02FD01DB01EF010000B5
:10153000000004049F01AD02AC0220534D415254FF
:10154000205041524B494E47200020535953544597
:101550004D204C4F4144494E47200053313A004FF3
:10156000434355504945442000454D50545920208F
:1015700020200053323A00436E743A0053313A202F
:101580000020636D207C2053323A200020636D20C0
:0C1590007C20436E743A20000D0A00001D
:107E0000112484B714BE81FFF0D085E080938100F7
:107E100082E08093C00088E18093C10086E0809377
:107E2000C20080E18093C4008EE0C9D0259A86E02C
:107E300020E33CEF91E0309385002093840096BBD3
:107E4000B09BFECF1D9AA8958150A9F7CC24DD24C4
:107E500088248394B5E0AB2EA1E19A2EF3E0BF2EE7
:107E6000A2D0813461F49FD0082FAFD0023811F036
:107E7000013811F484E001C083E08DD089C08234E0
:107E800011F484E103C0853419F485E0A6D080C0E4
:107E9000853579F488D0E82EFF2485D0082F10E0AE
:107EA000102F00270E291F29000F111F8ED06801E7
:107EB0006FC0863521F484E090D080E0DECF843638
:107EC00009F040C070D06FD0082F6DD080E0C81688
:107ED00080E7D80618F4F601B7BEE895C0E0D1E017
:107EE00062D089930C17E1F7F0E0CF16F0E7DF06D8
:107EF00018F0F601B7BEE89568D007B600FCFDCFD4
:107F0000A601A0E0B1E02C9130E011968C91119780
:107F100090E0982F8827822B932B1296FA010C0160
:107F200087BEE89511244E5F5F4FF1E0A038BF0790
:107F300051F7F601A7BEE89507B600FCFDCF97BE46
:107F4000E89526C08437B1F42ED02DD0F82E2BD052
:107F50003CD0F601EF2C8F010F5F1F4F84911BD097
:107F6000EA94F801C1F70894C11CD11CFA94CF0C13
:107F7000D11C0EC0853739F428D08EE10CD085E9AC
:107F80000AD08FE07ACF813511F488E018D01DD067
:107F900080E101D065CF982F8091C00085FFFCCF94
:107FA0009093C60008958091C00087FFFCCF809118
:107FB000C00084FD01C0A8958091C6000895E0E648
:107FC000F0E098E1908380830895EDDF803219F02E
:107FD00088E0F5DFFFCF84E1DECF1F93182FE3DFCA
:107FE0001150E9F7F2DF1F91089580E0E8DFEE27F6
:047FF000FF270994CA
:027FFE00040479
:00000001FF
