:100000000C9462000C948A000C948A000C948A0070
:100010000C948A000C948A000C948A000C948A0038
:100020000C948A000C948A000C948A000C948A0028
:100030000C948A000C948A000C948A000C948A0018
:100040000C9440060C948A000C94B0060C948A061A
:100050000C948A000C948A000C948A000C948A00F8
:100060000C948A000C948A000000000024002700F1
:100070002A0000000000250028002B0000000008D6
:10008000000201000003040700000000000000005F
:1000900000000000230026002900040404040404D6
:1000A0000404020202020202030303030303010227
:1000B00004081020408001020408102001020408F6
:1000C0001020E20611241FBECFEFD8E0DEBFCDBF67
:1000D00011E0A0E0B1E0E8EDF6E102C005900D927C
:1000E000AA35B107D9F722E0AAE5B1E001C01D9217
:1000F000AB32B207E1F710E0C2E6D0E004C02197CE
:10010000FE010E94640BC136D107C9F70E944C075B
:100110000C946A0B0C940000CF92DF92EF92FF9246
:10012000CF93DF93B0911F02A0E08111AB2F80919C
:10013000200290E0880F991FAC0140575F4FC0909C
:100140002502D0902602E0902702F090280230E0AD
:1001500020E0FA01C591D491E881B90190E080E0F6
:10016000EB23EA130AC02F5F3F4F6C157D058E0508
:100170009F0578F36FEF7FEFCB01DF91CF91FF9079
:10018000EF90DF90CF900895FC01538D448D252F83
:1001900030E0842F90E0821B930B541710F0CF9621
:1001A000089501970895FC01918D828D981761F053
:1001B000A28DAE0FBF2FB11D5D968C91928D9F5F6A
:1001C0009F73928F90E008958FEF9FEF0895FC0149
:1001D000918D828D981731F0828DE80FF11D858DFC
:1001E00090E008958FEF9FEF0895FC01918D228D8F
:1001F000892F90E0805C9F4F821B91098F73992714
:100200000895FC01A48DA80FB92FB11DA35ABF4FAB
:100210002C91848D90E001968F739927848FA68905
:10022000B7892C93A089B1898C91837080648C9359
:10023000938D848D981306C00288F389E02D808108
:100240008F7D80830895EF92FF920F931F93CF933A
:10025000DF93EC0181E0888F9B8D8C8D98131AC001
:10026000E889F989808185FF15C09FB7F894EE89E8
:10027000FF896083E889F989808183708064808345
:100280009FBF81E090E0DF91CF911F910F91FF9090
:10029000EF900895F62E0B8D10E00F5F1F4F0F7338
:1002A0001127E02E8C8D8E110CC00FB607FCFACFF3
:1002B000E889F989808185FFF5CFCE010E9401018F
:1002C000F1CFEB8DEC0FFD2FF11DE35AFF4FF082C4
:1002D0009FB7F8940B8FEA89FB8980818062CFCF2A
:1002E000CF93DF93EC01888D8823B9F0AA89BB896D
:1002F000E889F9898C9185FD03C0808186FD0DC058
:100300000FB607FCF7CF8C9185FFF2CF808185FF78
:10031000EDCFCE010E940101E9CFDF91CF91089589
:1003200083E691E00E94F50021E0892B09F420E0AA
:10033000822F089580E090E0892B29F00E9490019F
:1003400081110C940000089590E0FC01E458FF4FE7
:100350002491FC01E255FF4F3491FC01E656FF4F1A
:10036000E491EE23C9F0222339F0233001F1A8F4FF
:10037000213019F1223029F1F0E0EE0FFF1FEE5885
:10038000FF4FA591B4918FB7F894EC91611126C0FD
:1003900030953E233C938FBF08952730A9F0283035
:1003A000C9F0243049F7809180008F7D03C080918F
:1003B00080008F7780938000DFCF84B58F7784BDF6
:1003C000DBCF84B58F7DFBCF8091B0008F7780939A
:1003D000B000D2CF8091B0008F7DF9CF3E2BDACF25
:1003E000CF93DF9390E0FC01E255FF4F24918656B6
:1003F0009F4FFC0184918823D1F090E0880F991FD2
:10040000FC01E859FF4FA591B491FC01EE58FF4F54
:10041000C591D491623071F49FB7F8943C91822FCA
:10042000809583238C93E8812E2B28839FBFDF91B7
:10043000CF9108958FB7F894EC912E2B2C938FBF0A
:10044000F6CF3FB7F89480915B0190915C01A09149
:100450005D01B0915E0126B5A89B05C02F3F19F044
:100460000196A11DB11D3FBFBA2FA92F982F882734
:10047000BC01CD01620F711D811D911D42E0660F0F
:10048000771F881F991F4A95D1F708958F929F92E1
:10049000AF92BF92CF92DF92EF92FF924B015C013D
:1004A0000E9421026B017C010E9421026C197D09CE
:1004B0008E099F09683E734081059105A8F321E0EC
:1004C000821A9108A108B10888EEC80E83E0D81EF0
:1004D000E11CF11C81149104A104B10429F7FF90DF
:1004E000EF90DF90CF90BF90AF909F908F90089546
:1004F000CF92DF92EF92FF920F931F93CF93DF93F0
:10050000CDB7DEB7C054D1400FB6F894DEBF0FBEF2
:10051000CDBF2FB7F89480915F0190916001A091B9
:100520006101B09162012FBF4091210250912202DE
:1005300060912302709124028C019D01041B150B14
:10054000260B370BB901A801403D574061057105E5
:1005500090F480912902C05CDE4F0FB6F894DEBFA4
:100560000FBECDBFDF91CF911F910F91FF90EF9004
:10057000DF90CF9008958093210290932202A09360
:100580002302B093240210921C0210921B021092BC
:100590001A02109219021092180262E080911D0254
:1005A0000E94F00161E070E080E090E00E9446026D
:1005B00061E080911D020E94F00160E080911D02C7
:1005C0000E94A40180911E028551823020F58BE2A9
:1005D00091E10197F1F762E080911D020E94F00124
:1005E00080912A0290E08230910538F0880F991F9F
:1005F000880F991F05970197F1F7F89480E00E9402
:100600008C006F3F7F4F8F4F9F4F61F410922902F4
:10061000789480E0A0CF64E170E080E090E00E94F8
:100620004602D9CF81E00E948C006F3F7F4F8F4FF1
:100630009F4F61F38E010F5F1F4F6E018FEBC81A42
:100640008EEFD80A780180E00E948C00F701608369
:1006500071838283938381E00E948C00F70164831D
:10066000758386839783F8E0EF0EF11CEC14FD048C
:1006700051F7789430E020E0F801C080D180E2802A
:10068000F3804481558166817781FFEFCF16DF06C5
:10069000EF06FF0631F04F3F8FEF580768077807E6
:1006A00019F410922902B5CFF90183E0F595E79589
:1006B0008A95E1F7E85EFD4F8081880FC416D50664
:1006C000E606F70610F180832F5F3F4F085F1F4F4C
:1006D0002832310589F640911C0220911802809140
:1006E0001902280F3327331F80911A02280F311D5A
:1006F00080911B02820F932F911D9927481719068D
:1007000081F681E08093290226CF8160DCCFAF9211
:10071000BF92CF92DF92EF92FF920F931F93CF93EE
:10072000DF936C017B018B01040F151FEB015E0150
:10073000AE18BF08C017D10759F06991D601ED91E5
:10074000FC910190F081E02DC6010995892B79F784
:10075000C501DF91CF911F910F91FF90EF90DF9036
:10076000CF90BF90AF900895089590E080E00895F5
:1007700061E08AE00E94A40168EB7BE080E090E009
:100780000E94460260E08AE00C94A401FC01019002
:100790000020E9F73197AF01481B590BBC0180E0FD
:1007A00092E00C9487038F929F92AF92BF920F9327
:1007B0001F93CF93DF93CDB7DEB7A1970FB6F89411
:1007C000DEBF0FBECDBF19A2423008F44AE08E0151
:1007D0000F5D1F4F842E912CB12CA12CA5019401EB
:1007E0000E94420BE62FB901CA01EA30F4F4E05D41
:1007F000D801EE938D01232B242B252B79F790E044
:1008000080E0109719F0CD010E94C603A1960FB6A3
:10081000F894DEBF0FBECDBFDF91CF911F910F9136
:10082000BF90AF909F908F900895E95CE1CFCF93F8
:10083000DF93EC0160E08E810E94A40161E08E8173
:100840000E94A40160E08E810E94A4018BE891E0E7
:100850000197F1F7DF91CF910895CF92DF92EF9258
:10086000FF920F931F93CF93DF936C017C0187E07E
:10087000E80EF11CD0E0C0E0062F10E0B8010C2E0D
:1008800002C0759567950A94E2F76170F70181914E
:100890007F010E94A4012196C430D10579F7C601D9
:1008A000DF91CF911F910F91FF90EF90DF90CF904C
:1008B0000C941704CF92DF92EF92FF920F931F9345
:1008C000CF93DF93EC01F62E642F8C810E94A4015C
:1008D0008D818F3F19F060E00E94A4010F2D10E080
:1008E0008F8584FF25C06E0187E0C80ED11CF12CD6
:1008F000E12CB8010E2C02C0759567950A94E2F7B9
:100900006170F60181916F010E94A401FFEFEF1A5F
:10091000FF0A88E0E816F10461F7CE01DF91CF917C
:100920001F910F91FF90EF90DF90CF900C941704E0
:10093000B80184E0759567958A95E1F7CE010E942C
:100940002D046F2DCE01DF91CF911F910F91FF905C
:10095000EF90DF90CF900C942D0440E0682F80E062
:1009600092E00C945A0481E00E94AD048BE39FE175
:100970000197F1F70895CF93DF93823029F4909196
:100980000F02986090930F0280931302109214024A
:1009900080E48093150280E18093160280E58093C5
:1009A000170261E0809104020E94F001809105022B
:1009B0008F3F19F061E00E94F00161E08091060232
:1009C0000E94F001C0E0D2E09E01205032408091B0
:1009D0000F0284FD0BC084E090E0219628173907B0
:1009E00044F461E08E810E94F001EECF88E090E057
:1009F000F4CF8BE39DE00197F1F760E08091040272
:100A00000E94A40160E0809106020E94A4018091EE
:100A100005028F3F19F060E00E94A40180910F024F
:100A200084FD34C063E080E092E00E942D04CBE4BA
:100A3000D6E4CE010197F1F763E080E092E00E94F6
:100A40002D042197F1F763E080E092E00E942D04ED
:100A500083E592E00197F1F762E080E092E00E9486
:100A60002D0480910F0280620E94AD0484E0809387
:100A700010028CE00E94AD040E94B30482E08093D7
:100A8000110286E0DF91CF910C94AD0480620E9448
:100A9000AD048BE496E40197F1F780910F02806238
:100AA0000E94AD0483E592E00197F1F780910F0277
:100AB00080620E94AD04D5CF41E00E945A0481E0DB
:100AC00090E008954F925F926F927F928F929F92E3
:100AD000AF92BF92CF92DF92EF92FF920F931F934C
:100AE000CF936B017C01742EAC019B010E943D0BE6
:100AF000882399F08EE191E0CF911F910F91FF90A3
:100B0000EF90DF90CF90BF90AF909F908F907F90AD
:100B10006F905F904F900C94C60346015701E89484
:100B2000B7F82FEF3FEF4FE75FE7C501B4010E9431
:100B30003D0B81110DC02FEF3FEF4FE75FE7C50180
:100B4000B4010E94730918161CF482E291E0D4CF1C
:100B50002FEF3FEF4FE75FE4C701B6010E94CB0ADA
:100B600018161CF486E291E0C7CF2FEF3FEF4FE756
:100B70005FECC701B6010E94730987FDF3CF20E047
:100B800030E0A901C701B6010E94730910E000E03E
:100B900087FF0CC041E06DE280E092E00E945A04C1
:100BA000F7FAF094F7F8F09401E010E0C0E060E0AC
:100BB00070E080E09FE37C1641F020E030E040E20E
:100BC00051E40E947809CF5FF6CFA70196010E94F9
:100BD00007094B015C010E94EA092B013C014AE034
:100BE0000E94D303080F191FCC23C9F1C301B2011E
:100BF0000E94190A9B01AC01C501B4010E940609BB
:100C00004B015C0141E06EE280E092E00E945A04F8
:100C10000F5F1F4FC15018F120E030E040E251E477
:100C2000C501B4010E94D00A2B013C010E94EA09CF
:100C30004B01B12CA12C4AE0C501B4010E94D303A1
:100C4000080F191FC501B4010E94190A9B01AC01CC
:100C5000C301B2010E9406094B015C01DBCFC80150
:100C6000CF911F910F91FF90EF90DF90CF90BF90A9
:100C7000AF909F908F907F906F905F904F9008956E
:100C80001F920F920FB60F9211242F933F938F93C1
:100C90009F93AF93BF9380915F0190916001A0916A
:100CA0006101B091620130915A0123E0230F2D3789
:100CB00058F50196A11DB11D20935A0180935F0143
:100CC00090936001A0936101B093620180915B01F8
:100CD00090915C01A0915D01B0915E010196A11D12
:100CE000B11D80935B0190935C01A0935D01B09373
:100CF0005E01BF91AF919F918F913F912F910F9086
:100D00000FBE0F901F90189526E8230F0296A11D85
:100D1000B11DD2CF1F920F920FB60F9211242F93B5
:100D20003F934F935F936F937F938F939F93AF9373
:100D3000BF93EF93FF9383E691E00E940101FF913F
:100D4000EF91BF91AF919F918F917F916F915F9143
:100D50004F913F912F910F900FBE0F901F901895BC
:100D60001F920F920FB60F9211242F938F939F9380
:100D7000EF93FF93E0917301F09174018081E09112
:100D80007901F0917A0182FD1BC0908180917C01F4
:100D90008F5F8F7320917D01821741F0E0917C017C
:100DA000F0E0ED59FE4F958F80937C01FF91EF911C
:100DB0009F918F912F910F900FBE0F901F901895BC
:100DC0008081F4CFE3E6F1E01382128288EE93E0B3
:100DD000A0E0B0E084839583A683B78384E091E0AC
:100DE0009183808385EC90E09587848784EC90E004
:100DF0009787868780EC90E0918B808B81EC90E0E8
:100E0000938B828B82EC90E0958B848B86EC90E0C8
:100E1000978B868B118E128E138E148EA8E1B2E002
:100E200088E015968C9315978BE016968C93169701
:100E3000E6EBF0E0E4911796EC931797E2EAF0E026
:100E4000E4911896EC93189740E85EE360E070E058
:100E50001D964D935D936D937C935097E0E0F2E087
:100E60001382128286E191E09183808387E08483FC
:100E70008FEF858386E0868385E0878384E08087A3
:100E800083E0818782E08287138614861586168622
:100E9000178681E00C94BB04789484B5826084BD8D
:100EA00084B5816084BD85B5826085BD85B581606E
:100EB00085BD80916E00816080936E0010928100EC
:100EC00080918100826080938100809181008160A7
:100ED0008093810080918000816080938000809168
:100EE000B10084608093B1008091B00081608093F4
:100EF000B00080917A00846080937A0080917A00BB
:100F0000826080937A0080917A00816080937A0079
:100F100080917A00806880937A001092C10082E00C
:100F20000E94BB0462E080911D020E94F0012FB775
:100F3000F89480915F0190916001A0916101B0915E
:100F400062012FBF805D9740A109B1098093210202
:100F500090932202A0932302B093240287E380930C
:100F60002A0261E089E00E94F00161E08AE00E94CB
:100F7000F00160E089E00E94A40160E08AE00E9444
:100F8000A4018AE291E00E94C60360ED77E080E070
:100F900090E00E9446020E94B304C0E0D0E00E94AC
:100FA0007802882349F080911E028B3028F08D3022
:100FB00050F085518230C8F1812C912C20ECA22E6A
:100FC0002FE7B22E1EC06091190270E090E080E021
:100FD0000E941B0A2DEC3CEC4CEC5DE30E94D00A15
:100FE0006B017C016091180270E090E080E00E944B
:100FF0001B0A9B01AC01C701B6010E9407094B0106
:101000005C010E947802882309F474C080911E025A
:101010008C3009F480C0D8F48B3091F1C12CD12CE4
:1010200080ECE82E8FE7F82E55C060911802709181
:10103000190276276727762790E080E00E94190A38
:101040002DEC3CEC4CEC5DE30E94D00AD8CF8551EE
:10105000823020F710911A02612F70E0762F6627F8
:1010600066277F7780911B02682B90E080E00E94CA
:10107000190A2DEC3CEC4CEC5DE30E94D00A67C0F1
:1010800060911A0270E090E080E00E94190A6B0102
:101090007C0110911B0217FF0AC0AC019B0160E0AC
:1010A00070E080E89FEB0E9406096B017C011F70D5
:1010B000612F70E090E080E00E941B0A2DEC3CEC78
:1010C0004CEC5DE30E94D00AA70196010E9407093B
:1010D0006B017C01A5019401C501B4010E943D0B87
:1010E000811108C0A7019601C701B6010E943D0BFE
:1010F0008823B1F10E94B30488E391E00E94C60303
:10110000209709F44CCF0E949001882309F447CF1F
:101110000E94000044CF10911A02612F70E090E00D
:1011200080E00E94190A6B017C0160911B026F70C4
:1011300070E090E080E00E941B0A2DEC3CEC4CEC4F
:101140005DE30E94D00AA70196010E9407096B0186
:101150007C0117FFBFCFF7FAF094F7F8F094BACFFD
:10116000E1E0809113028111E0E0E195F0E0E050D0
:10117000FE4F848980680E94AD0486E491E00E945D
:10118000C60342E0C701B6010E94620541E06FED6F
:1011900080E092E00E945A048BE491E00E94C60332
:1011A000E0911302E23060F5E150F0E0E050FE4FD4
:1011B000848980680E94AD0480E591E00E94C603A6
:1011C00042E0C501B4010E94620585E591E00E94FC
:1011D000C60320E030E048EC51E4C701B6010E94AC
:1011E000CB0A18167CF40E94B80361E089E00E94E3
:1011F000A40168EE73E080E090E00E94460280CF98
:10120000E1E0D3CF0E94B80360E0F0CF5058BB2795
:10121000AA270E941E090C94910A0E94830A38F0A2
:101220000E948A0A20F039F49F3F19F426F40C94A6
:10123000800A0EF4E095E7FB0C947A0AE92F0E94ED
:10124000A20A58F3BA17620773078407950720F0BC
:1012500079F4A6F50C94C40A0EF4E0950B2EBA2F7F
:10126000A02D0B01B90190010C01CA01A0011124AC
:10127000FF27591B99F0593F50F4503E68F11A1658
:10128000F040A22F232F342F4427585FF3CF4695E9
:1012900037952795A795F0405395C9F77EF41F160B
:1012A000BA0B620B730B840BBAF09150A1F0FF0FD5
:1012B000BB1F661F771F881FC2F70EC0BA0F621FC1
:1012C000731F841F48F4879577956795B795F795B1
:1012D0009E3F08F0B0CF9395880F08F09927EE0F46
:1012E0009795879508950E94560A08F481E008951D
:1012F0000E948C090C94910A0E948A0A58F00E945C
:10130000830A40F029F45F3F29F00C947A0A5111C6
:101310000C94C50A0C94800A0E94A20A68F39923CF
:10132000B1F3552391F3951B550BBB27AA276217E1
:101330007307840738F09F5F5F4F220F331F441FEE
:10134000AA1FA9F335D00E2E3AF0E0E832D0915022
:101350005040E695001CCAF72BD0FE2F29D0660F0F
:10136000771F881FBB1F261737074807AB07B0E852
:1013700009F0BB0B802DBF01FF2793585F4F3AF058
:101380009E3F510578F00C947A0A0C94C50A5F3F91
:10139000E4F3983ED4F3869577956795B795F795DE
:1013A0009F5FC9F7880F911D9695879597F90895C6
:1013B000E1E0660F771F881FBB1F62177307840762
:1013C000BA0720F0621B730B840BBA0BEE1F88F771
:1013D000E09508950E94AA0A88F09F5798F0B92FC7
:1013E0009927B751B0F0E1F0660F771F881F991F5A
:1013F0001AF0BA95C9F714C0B13091F00E94C40A2E
:10140000B1E008950C94C40A672F782F8827B85F3D
:1014100039F0B93FCCF3869577956795B395D9F7B1
:101420003EF490958095709561957F4F8F4F9F4FBB
:101430000895E89409C097FB3EF4909580957095C7
:1014400061957F4F8F4F9F4F9923A9F0F92F96E910
:10145000BB279395F695879577956795B795F11185
:10146000F8CFFAF4BB0F11F460FF1BC06F5F7F4F22
:101470008F4F9F4F16C0882311F096E911C0772334
:1014800021F09EE8872F762F05C0662371F096E83D
:10149000862F70E060E02AF09A95660F771F881F0C
:1014A000DAF7880F9695879597F90895990F0008B0
:1014B000550FAA0BE0E8FEEF16161706E807F90726
:1014C000C0F012161306E407F50798F0621B730BC1
:1014D000840B950B39F40A2661F0232B242B252B42
:1014E00021F408950A2609F4A140A6958FEF811DE5
:1014F000811D089597F99F6780E870E060E0089586
:101500009FEF80EC089500240A941616170618061B
:101510000906089500240A941216130614060506F7
:101520000895092E0394000C11F4882352F0BB0F88
:1015300040F4BF2B11F460FF04C06F5F7F4F8F4FEB
:101540009F4F089557FD9058440F551F59F05F3F26
:1015500071F04795880F97FB991F61F09F3F79F0D5
:1015600087950895121613061406551FF2CF469557
:10157000F1DF08C0161617061806991FF1CF8695D9
:101580007105610508940895E894BB2766277727BD
:10159000CB0197F908950E94560A08F48FEF089539
:1015A0000E94E30A0C94910A0E94830A38F00E9478
:1015B0008A0A20F0952311F00C947A0A0C94800A80
:1015C00011240C94C50A0E94A20A70F3959FC1F3DE
:1015D000950F50E0551F629FF001729FBB27F00DE1
:1015E000B11D639FAA27F00DB11DAA1F649F662736
:1015F000B00DA11D661F829F2227B00DA11D621F85
:10160000739FB00DA11D621F839FA00D611D221F3E
:10161000749F3327A00D611D231F849F600D211D22
:10162000822F762F6A2F11249F5750409AF0F1F0A5
:1016300088234AF0EE0FFF1FBB1F661F771F881F0E
:1016400091505040A9F79E3F510580F00C947A0AC2
:101650000C94C50A5F3FE4F3983ED4F386957795E2
:101660006795B795F795E7959F5FC1F7FE2B880FB4
:10167000911D9695879597F908950E94560A880BB3
:10168000990B0895A1E21A2EAA1BBB1BFD010DC0E8
:10169000AA1FBB1FEE1FFF1FA217B307E407F50722
:1016A00020F0A21BB30BE40BF50B661F771F881FFE
:1016B000991F1A9469F760957095809590959B0194
:1016C000AC01BD01CF010895EE0FFF1F0590F4910D
:0816D000E02D0994F894FFCF0E
:1016D8000000000023018703C4007001F500D30057
:1016E800E700000000005C058703B503B4036E61E2
:1016F8006E00696E66006F7666004448543131208A
:10170800576561746865720053656E736F72204522
:1017180072726F72210054203D2000432020200067
:0A17280048203D200025202020006D
:00000001FF
