:020000040000FA
:100000000A128A110C281034FE00030EF0000A08B0
:10001000F1000A128A156C2F0A128A110F280A128F
:100020008A1103200A128A11BE000A128A11FF27C0
:100030000A128A11FB00B301B401B501B601B70180
:10004000B801B901BA01BB01BC01BD01F901FA0156
:1000500083010A128A110B2B83120313AC00313077
:100060002906031D342835283828BB01AC01B50109
:100070000130B40706303406031D3F2840284928C4
:10008000B4013308031945284728013048280030B7
:10009000B3003230F6008030F7000A128A152227AA
:1000A0000A128A11DB30F600C030F7000A128A15F6
:1000B00022270A128A111230F600D030F7000A12F5
:1000C0008A1522270A128A112A30831203132C065A
:1000D00003196B286C288C2823302C0603197128EF
:1000E00072288C282C0A0319762877288C2801304E
:1000F000B5070530350203187E287F283D290A30D0
:10010000F2003B080A128A15D7260A128A118312B6
:1001100003132C07BB003D292A302C06031D912810
:1001200092289528BB01B5013D2923302C06031DDB
:100130009A289B283D29B5303B02031CA028A12802
:10014000A328B430BB000A128A15B3260A128A11FA
:100150003C3083120313BA0012158530F600833049
:10016000F7000A128A1522270A128A119C30F6001B
:100170009030F7000A128A1522270A128A119C3041
:1001800083120313A80073300A128A15C4260A12B8
:100190008A112C299930A8006430F2000030F30055
:1001A0003A08AA00AB012A08F4002B08F5000A124D
:1001B0008A1101270A128A117208303E0A128A1522
:1001C000C4260A128A119A3083120313A8000A3037
:1001D000A4000030A5000A30F2000030F3003A0815
:1001E000AA00AB012A08F4002B08F5000A128A11B4
:1001F00001270A128A11730883120313A7007208D9
:10020000A6000A128A15A7270A128A11831203135D
:100210002408303E0A128A15C4260A128A119B301D
:1002200083120313A8000A30A4000030A5003A0886
:10023000AA00AB012A08A6002B08A7000A128A15FB
:10024000A7270A128A11831203132408303E0A12C8
:100250008A15C4260A128A11831203133A08031D51
:1002600032293329CA2812110A128A15B3260A1212
:100270008A11303083120313BE0033080319412959
:1002800042295F29C730A80020300A128A15C426E7
:100290000A128A11C83083120313A80020300A12F0
:1002A0008A15C4260A128A11C93083120313A800C2
:1002B00020300A128A15C4260A128A11C129C730B1
:1002C000A8006430F2000030F3003B08AA00AB0144
:1002D0002A08F4002B08F5000A128A1101270A12D5
:1002E0008A117208303E0A128A15C4260A128A112F
:1002F000C83083120313A8000A30A4000030A50000
:100300000A30F2000030F3003B08AA00AB012A08D3
:10031000F4002B08F5000A128A1101270A128A112B
:10032000730883120313A7007208A6000A128A1525
:10033000A7270A128A11831203132408303E0A12D7
:100340008A15C4260A128A11C93083120313A80021
:100350000A30A4000030A5003B08AA00AB012A081F
:10036000A6002B08A7000A128A15A7270A128A11CD
:10037000831203132408303E0A128A15C4260A1277
:100380008A11080083120313AC0031302906031DC3
:10039000CA29CB29D029BD01BC01AC01B801B901E2
:1003A0000130F6008030F7000A128A1522270A125F
:1003B0008A11D530F600C030F7000A128A152227BC
:1003C0000A128A11C73083120313A8003A300A12A6
:1003D0008A15C4260A128A111230F600D030F700AE
:1003E0000A128A1522270A128A112A30831203134D
:1003F0002C060319FC29FD29332A23302C06031966
:10040000022A032A332A2C0A0319072A082A332A24
:100410000130B8070430380203180F2A102A1E2AA8
:100420000A30F2003D080A128A15D7260A128A11EC
:10043000831203132C07BD00B9015B2A0630380272
:100440000318232A242A5B2A0A30F2003C080A12E5
:100450008A15D7260A128A11831203132C07BC00AF
:100460000130B9005B2A2A302C06031D382A392AAC
:100470004A2A3908031D3D2A3E2A412ABD01B801F6
:100480005B2A3903031D452A462A5B2ABC01023038
:10049000B8005B2A23302C06031D4F2A502A5B2A02
:1004A0000A128A15B3260A128A118312031307153A
:1004B00012157030BE000130B7070B303706031D30
:1004C000622A632A6C2AB70136080319682A6A2A45
:1004D00001306B2A0030B60036080319702A712AE1
:1004E0009C2A3908031D752A762A892AC830A80053
:1004F00020300A128A15C4260A128A11C9308312C2
:100500000313A80020300A128A15C4260A128A1181
:100510000A2BC530A80020300A128A15C4260A12F8
:100520008A11C63083120313A80020300A128A15DC
:10053000C4260A128A110A2BC830A8000A30F20019
:100540000030F3003D08AA00AB012A08F4002B0894
:10055000F5000A128A1101270A128A117208303E28
:100560000A128A15C4260A128A11C930831203138B
:10057000A8000A30A4000030A5003D08AA00AB0185
:100580002A08A6002B08A7000A128A15A7270A1214
:100590008A11831203132408303E0A128A15C426D6
:1005A0000A128A11C53083120313A8000A30F20020
:1005B0000030F3003C08AA00AB012A08F4002B0825
:1005C000F5000A128A1101270A128A117208303EB8
:1005D0000A128A15C4260A128A11C630831203131E
:1005E000A8000A30A4000030A5003C08AA00AB0116
:1005F0002A08A6002B08A7000A128A15A7270A12A4
:100600008A11831203132408303E0A128A15C42665
:100610000A128A1108000A128A15EA260A128A1199
:1006200083120313B10101300A128A15FF260A1240
:100630008A1183120313B20020303E06031D212BC2
:10064000222B732B3203031D262B272B4F2B3030ED
:10065000BE000A128A15B3260A128A116C30F600FF
:10066000C230F7000A128A1522270A128A114D3069
:1006700083120313B0001930AF004F30AE00AE0B41
:100680003F2BAF0B3F2BB00B3F2B0A128A15B32623
:100690000A128A11313083120313B100F22B023097
:1006A0003206031D542B552B5F2B4030BE003130DA
:1006B000B1000A128A15B3260A128A11F22B0330EE
:1006C0003206031D642B652B6A2B5030BE0031307F
:1006D000B100592B04303206031D6F2B702BF22B07
:1006E0006030BE00592B70303E06031D782B792BED
:1006F0009F2B04303206031D7E2B7F2B8D2B3D0854
:100700001E3EBD003C303D02031C872B882B8D2BE9
:100710000130BC073D08C43EBD0005303206031D54
:10072000922B932B962B8030BE00F22B0630320694
:10073000031D9B2B9C2BF22B9030BE00F22B8030A4
:100740003E06031DA42BA52BF22B04303206031DFD
:10075000AA2BAB2BF22B121507157030BE00F22B13
:100760000A128A1197260A128A110A128A15B326CA
:100770000A128A11203083120313BE00112C0A12B0
:100780008A1547270A128A11112C3108A90032084C
:100790000A128A11C2210A128A11112C0A128A1114
:1007A000FF240A128A11112C3108A90032080A12FA
:1007B0008A11C2210A128A11112C3108A9003208AB
:1007C0000A128A112C200A128A11112C0A128A1577
:1007D0008E260A128A11112C12110711112C1211D6
:1007E0000711B52B831203133E08103A0319B02BDF
:1007F000303A0319BF2B103A0319C52B703A03196D
:10080000D42B103A0319DD2B303A0319E62B103A9A
:100810000319CE2BF03A0319EC2B103A0319EF2BE6
:10082000112CFF3083120313B100132B0A128A110B
:100830000C2804308A000408840A820700345334E8
:10084000453454342034543449344D344534203400
:1008500028344D344D343A3453345334293400342D
:100860002A343A3443344C344534413452342034FD
:1008700023343A3445344E345434453452340034FD
:1008800045346E346A346F347934203479346F34BB
:100890007534723420346D34653461346C34003412
:1008A0005334453454342034543465346D34703406
:1008B000203428343C342A3443343E340034343435
:1008C0002E34533454344134523454342F3452344B
:1008D0004534533455344D34453400344D34693443
:1008E000633472346F347734613476346534203451
:1008F0004F34763465346E3400343334203443342A
:100900006F346E34763465346334743469346F34E0
:100910006E34003450346F3477346534723420349C
:100920003D3420343934303430345734003450348A
:100930006F3477346534723469346E3467342034FC
:100940004F344E3400345034723465342D344834CE
:1009500065346134743469346E346734003454342B
:1009600049344D3445342034553450342134213405
:1009700021340034543469346D34653420345234B5
:1009800065346D343A340034543449344D3445348C
:1009900020343D342034003435342E345034413446
:1009A00055345334453400343234203447347234AF
:1009B00069346C346C340034313420344D3469344F
:1009C000633472346F340034343420345334743428
:1009D000613472347434003436342E345334543425
:1009E0004F3450340034543449344D3445343A345F
:1009F0000034543465346D3470343D340034A630E2
:100A0000F6008130F7000A128A1522270A128A118D
:100A1000893083120313A8000A30F2000030F3007B
:100A20003C08A900AA012908F4002A08F5000A12C6
:100A30008A1101270A128A117208303E0A128A1599
:100A4000C4260A128A118A3083120313A8000A30BE
:100A5000A4000030A5003C08A900AA012908A600AE
:100A60002A08A7000A128A15A7270A128A118312D8
:100A700003132408303E0A128A15C4260A128A116A
:100A80008B3083120313A8003A300A128A15C42649
:100A90000A128A118C3083120313A8000A30F20064
:100AA0000030F3003D08A900AA012908F4002A0833
:100AB000F5000A128A1101270A128A117208303EC3
:100AC0000A128A15C4260A128A118D308312031362
:100AD000A8000A30A4000030A5003D08A900AA0122
:100AE0002908A6002A08A7000A128A15A7270A12B1
:100AF0008A11831203132408303E0A128A15C42671
:100B00000A128A114130F600C230F7000A128A1523
:100B100022270A128A11AE30F6009230F7000A122C
:100B20008A1522270A128A11CE30F600D230F70039
:100B30000A128A1522270A128A11831203133C080B
:100B4000031DA32DA42DDB2D3D08031DA82DA92DCC
:100B5000DB2D0A128A15B3260A128A118312031397
:100B6000121107119130F600C430F7000A128A15ED
:100B700022270A128A112230F6009030F7000A125A
:100B80008A1522270A128A11333083120313AB000D
:100B9000BB30AA00DF30A900A90BCC2DAA0BCC2DAD
:100BA000AB0BCC2D0A128A15B3260A128A112030FB
:100BB00083120313BE000800831203138811081563
:100BC000881408146430F2000030F300FF30F2079C
:100BD0000318F30AFF30F307720A031DF32D730A9B
:100BE000031DF32DF42DE62D831203130618F92DA2
:100BF000FA2DFC2D0130962E8618FF2D002E022E88
:100C00000230962E0619052E062E082E0330962E3B
:100C100088150811881408146430F2000030F300BD
:100C2000FF30F2070318F30AFF30F3077308803A26
:100C3000FF0080307F02031D1F2E01307202031857
:100C4000222E232E102E831203130618282E292E4F
:100C50002B2E0430962E86182E2E2F2E312E053058
:100C6000962E0619342E352E372E0630962E8815E0
:100C70000815881008146430F2000030F300FF30CB
:100C8000F2070318F30AFF30F3077308803AFF00F6
:100C900080307F02031D4E2E013072020318512E48
:100CA000522E3F2E831203130618572E582E5A2EFB
:100CB0000730962E86185D2E5E2E602E0830962EFA
:100CC0000619632E642E662E0930962E8815081597
:100CD000881408106430F2000030F300FF30F2078F
:100CE0000318F30AFF30F3077308803AFF008030DF
:100CF0007F02031D7D2E013072020318802E812E8B
:100D00006E2E831203130618862E872E892E2A3004
:100D1000962E86188C2E8D2E8F2E0030962E06192C
:100D2000922E932E952E2330962EFF30080083129C
:100D30000313AC012C08803EA800FF300A128A156C
:100D4000C4260A128A11033083120313AB008A30BF
:100D5000AA005530A900A90BAB2EAA0BAB2EAB0BEA
:100D6000AB2E013083120313AC0710302C02031C8E
:100D7000BA2EBB2E9A2E7930F600C330F7000A1235
:100D80008A1522270A128A115030F6009230F70095
:100D90000A128A1522270A128A1183120313AD013F
:100DA0002D08D03EA800FF300A128A15C4260A1268
:100DB0008A11033083120313AB008A30AA00553026
:100DC000A900A90BE12EAA0BE12EAB0BE12E0130FD
:100DD00083120313AD0710302D02031CF02EF12EE9
:100DE000D02E1A3083120313AB005E30AA006D3090
:100DF000A900A90BF92EAA0BF92EAB0BF92E002F87
:100E0000080083120313A101F31F072F082F0F2FD0
:100E1000F209F309F20A0319F30A0130A100F51FE0
:100E2000122F132F1A2FF409F509F40A0319F50AE2
:100E30000130A106A201A301720873040319212F36
:100E4000222F572F0130A0002E2F01300310F20D5A
:100E5000F30DFF3E031D262F0130A007F31F312F96
:100E6000322F252F01300310A20DA30DFF3E031DCD
:100E7000332F73087502031D3F2F72087402031C81
:100E8000422F432F4A2F7208F4027308031CF50304
:100E9000F502221401300310F30CF20CFF3E031D87
:100EA0004B2F0130A002031D562F572F322F210840
:100EB00003195B2F5C2F612FA209A309A20A031952
:100EC000A30A2308F3002208F2000800C330F70049
:100ED000CD30F600F60B6A2FF70B6A2FF201333094
:100EE0000A128A11C9270A128A111B30F7009E3094
:100EF000F600F60B792FF70B792F0000F201333053
:100F00000A128A11C9270A128A11A630F600F60BB6
:100F1000872F0000F20133300A128A11C9270A1202
:100F20008A11922F932F0000F20102300A128A11C7
:100F3000C9270A128A11A630F600F60B9D2F000071
:100F4000F20128300A128A11C9270A128A11A63022
:100F5000F600F60BA92F0000F20101300A128A11E7
:100F6000C9270A128A110430F7003D30F600F60B4B
:100F7000B72FF70BB72FBC2FF2010C300A128A11D2
:100F8000C9270A128A11A630F600F60BC52F0000F9
:100F90000800F5007218CD2FD12F83120313091505
:100FA000D42F8312031309117508F03988008914AE
:100FB000A630F300F30BDA2F00008312031389101D
:100FC00075080F39F30003300310F30DFF3E031DC6
:100FD000E42F0310730D88008914A630F300F30B7F
:100FE000EF2F00008312031389101B30F4009E3092
:100FF000F300F30BF92FF40BF92F00000800013474
:101D0A00FA308316031392008C14831203131211F0
:101D1A0008001E3083120313BD00BC0112150715FB
:101D2A007030BE0008008316031388010911891058
:101D3A000A128A1166270A128A15080083160313E3
:101D4A000608073886000808F039880081178312C8
:101D5A00031388150815881408140800F2010130C5
:101D6A000A128A11C9270A128A150430F7003D306F
:101D7A00F600F60BBE2EF70BBE2EC32E0800F80097
:101D8A00F2018312031328080A128A11C9270A12B8
:101D9A008A15F201F20A78080A128A11C9270A1268
:101DAA008A150800F400F301741CDC2EDD2EDF2EE8
:101DBA007208F3070310F20D0310F40C7408031DE4
:101DCA00E72EE82ED92E730808000A128A159826DB
:101DDA000A128A150A128A15A3260A128A150A12E3
:101DEA008A1585260A128A158316031307110B17FB
:101DFA008B170800F4000A128A11DC250A128A15C8
:101E0A00F5007408031D0A2F0B2F0D2F7508212FBB
:101E1A00750A0319112F122F192F7B080319162F70
:101E2A00172F192FFB010B2F750A031D1D2F1E2FAC
:101E3A00202F0130FB00FF300800F20177080A1258
:101E4A008A11C9270A128A153A2FF201F20A76086C
:101E5A0084000A128A1119240A128A150A128A118E
:101E6A00C9270A128A150130F607760884000A1271
:101E7A008A1119240A128A15003A031D452F462F82
:101E8A002A2F0800BE30F6008330F7000A128A159E
:101E9A0022270A128A15B630F600C330F7000A1252
:101EAA008A1522270A128A155F30F6009330F70046
:101EBA000A128A1522270A128A15C630F600D3306A
:101ECA00F7000A128A1522270A128A1508008312B5
:101EDA0003138C1C712F722FA02F0130F9070318DE
:101EEA00FA0A0030FA07203079064E3003197A06CA
:101EFA00031D802F812F9F2FF901FA013D08031935
:101F0A00872F882F8A2F0130BD023D08031D8E2F8F
:101F1A008F2F982F3C080319932F942F982F013055
:101F2A00BC023C30BD003A0803199C2F9D2F9F2FFD
:101F3A000130BA028C1071088A00700E8300FE0EFE
:101F4A007E0E0900F70183120313A71FAD2FAE2FD0
:101F5A00B52FA609A709A60A0319A70A0130F7008F
:101F6A00A51FB82FB92FBE2FA409A509A40A0319C2
:101F7A00A50A240825040319C32FC42FF12F013001
:101F8A00F600D02F01300310A40DA50DFF3E031D4E
:101F9A00C82F0130F607A51FD32FD42FC72F250826
:101FAA002702031DDA2F24082602031CDD2FDE2F49
:101FBA00E42F2408A6022508031CA703A702013060
:101FCA000310A50CA40CFF3E031DE52F0130F602F9
:101FDA00031DF02FF12FD42F77080319F52FF62FB1
:101FEA00FB2FA609A709A60A0319A70A2708A5000D
:061FFA002608A400080007
:02400E00FB3F76
:00000001FF
